{
  "_format": "hh-sol-artifact-1",
  "contractName": "DocumentVerifier",
  "sourceName": "contracts/DocumentVerifier.sol",
  "abi": [
    {
      "inputs": [
        {
          "internalType": "address",
          "name": "_registry",
          "type": "address"
        }
      ],
      "stateMutability": "nonpayable",
      "type": "constructor"
    },
    {
      "anonymous": false,
      "inputs": [
        {
          "indexed": false,
          "internalType": "bytes32",
          "name": "hash",
          "type": "bytes32"
        },
        {
          "indexed": false,
          "internalType": "uint256",
          "name": "issuerId",
          "type": "uint256"
        },
        {
          "indexed": false,
          "internalType": "uint256",
          "name": "timestamp",
          "type": "uint256"
        }
      ],
      "name": "DocumentStored",
      "type": "event"
    },
    {
      "inputs": [
        {
          "internalType": "bytes32",
          "name": "",
          "type": "bytes32"
        }
      ],
      "name": "documents",
      "outputs": [
        {
          "internalType": "bool",
          "name": "exists",
          "type": "bool"
        },
        {
          "internalType": "uint256",
          "name": "issuerId",
          "type": "uint256"
        },
        {
          "internalType": "uint256",
          "name": "timestamp",
          "type": "uint256"
        }
      ],
      "stateMutability": "view",
      "type": "function"
    },
    {
      "inputs": [],
      "name": "registry",
      "outputs": [
        {
          "internalType": "contract IssuerRegistry",
          "name": "",
          "type": "address"
        }
      ],
      "stateMutability": "view",
      "type": "function"
    },
    {
      "inputs": [
        {
          "internalType": "bytes32",
          "name": "hash",
          "type": "bytes32"
        },
        {
          "internalType": "uint256",
          "name": "issuerId",
          "type": "uint256"
        }
      ],
      "name": "storeDocument",
      "outputs": [],
      "stateMutability": "nonpayable",
      "type": "function"
    },
    {
      "inputs": [
        {
          "internalType": "bytes32",
          "name": "hash",
          "type": "bytes32"
        }
      ],
      "name": "verifyDocument",
      "outputs": [
        {
          "internalType": "bool",
          "name": "exists",
          "type": "bool"
        },
        {
          "internalType": "uint256",
          "name": "issuerId",
          "type": "uint256"
        },
        {
          "internalType": "string",
          "name": "name",
          "type": "string"
        },
        {
          "internalType": "string",
          "name": "org",
          "type": "string"
        },
        {
          "internalType": "string",
          "name": "email",
          "type": "string"
        },
        {
          "internalType": "address",
          "name": "owner",
          "type": "address"
        },
        {
          "internalType": "uint256",
          "name": "timestamp",
          "type": "uint256"
        }
      ],
      "stateMutability": "view",
      "type": "function"
    }
  ],
  "bytecode": "0x608060405234801561001057600080fd5b50604051610b32380380610b32833981810160405281019061003291906100dc565b80600160006101000a81548173ffffffffffffffffffffffffffffffffffffffff021916908373ffffffffffffffffffffffffffffffffffffffff16021790555050610109565b600080fd5b600073ffffffffffffffffffffffffffffffffffffffff82169050919050565b60006100a98261007e565b9050919050565b6100b98161009e565b81146100c457600080fd5b50565b6000815190506100d6816100b0565b92915050565b6000602082840312156100f2576100f1610079565b5b6000610100848285016100c7565b91505092915050565b610a1a806101186000396000f3fe608060405234801561001057600080fd5b506004361061004c5760003560e01c806309fdcacd146100515780632b2805db1461006d5780637b1039991461009f578063fe35089f146100bd575b600080fd5b61006b6004803603810190610066919061046d565b6100f3565b005b610087600480360381019061008291906104ad565b6101fc565b60405161009693929190610504565b60405180910390f35b6100a7610233565b6040516100b491906105ba565b60405180910390f35b6100d760048036038101906100d291906104ad565b610259565b6040516100ea9796959493929190610686565b60405180910390f35b60008083815260200190815260200160002060000160009054906101000a900460ff1615610156576040517f08c379a000000000000000000000000000000000000000000000000000000000815260040161014d90610756565b60405180910390fd5b60405180606001604052806001151581526020018281526020014281525060008084815260200190815260200160002060008201518160000160006101000a81548160ff02191690831515021790555060208201518160010155604082015181600201559050507ffb488a6132f346f70c97124c1068e31eab5534c8a0a428be1c09328440b734bf8282426040516101f093929190610785565b60405180910390a15050565b60006020528060005260406000206000915090508060000160009054906101000a900460ff16908060010154908060020154905083565b600160009054906101000a900473ffffffffffffffffffffffffffffffffffffffff1681565b600080606080606060008060008060008a81526020019081526020016000206040518060600160405290816000820160009054906101000a900460ff16151515158152602001600182015481526020016002820154815250509050806000015161030d576000806000806040518060200160405280600081525091906040518060200160405280600081525091906040518060200160405280600081525091909750975097509750975097509750506103e2565b600160009054906101000a900473ffffffffffffffffffffffffffffffffffffffff1673ffffffffffffffffffffffffffffffffffffffff166392089c4682602001516040518263ffffffff1660e01b815260040161036c91906107bc565b600060405180830381865afa158015610389573d6000803e3d6000fd5b505050506040513d6000823e3d601f19601f820116820180604052508101906103b29190610929565b80965081975082985083995050505050600181602001518787878786604001519750975097509750975097509750505b919395979092949650565b6000604051905090565b600080fd5b600080fd5b6000819050919050565b61041481610401565b811461041f57600080fd5b50565b6000813590506104318161040b565b92915050565b6000819050919050565b61044a81610437565b811461045557600080fd5b50565b60008135905061046781610441565b92915050565b60008060408385031215610484576104836103f7565b5b600061049285828601610422565b92505060206104a385828601610458565b9150509250929050565b6000602082840312156104c3576104c26103f7565b5b60006104d184828501610422565b91505092915050565b60008115159050919050565b6104ef816104da565b82525050565b6104fe81610437565b82525050565b600060608201905061051960008301866104e6565b61052660208301856104f5565b61053360408301846104f5565b949350505050565b600073ffffffffffffffffffffffffffffffffffffffff82169050919050565b6000819050919050565b600061058061057b6105768461053b565b61055b565b61053b565b9050919050565b600061059282610565565b9050919050565b60006105a482610587565b9050919050565b6105b481610599565b82525050565b60006020820190506105cf60008301846105ab565b92915050565b600081519050919050565b600082825260208201905092915050565b60005b8381101561060f5780820151818401526020810190506105f4565b60008484015250505050565b6000601f19601f8301169050919050565b6000610637826105d5565b61064181856105e0565b93506106518185602086016105f1565b61065a8161061b565b840191505092915050565b60006106708261053b565b9050919050565b61068081610665565b82525050565b600060e08201905061069b600083018a6104e6565b6106a860208301896104f5565b81810360408301526106ba818861062c565b905081810360608301526106ce818761062c565b905081810360808301526106e2818661062c565b90506106f160a0830185610677565b6106fe60c08301846104f5565b98975050505050505050565b7f416c72656164792073746f726564000000000000000000000000000000000000600082015250565b6000610740600e836105e0565b915061074b8261070a565b602082019050919050565b6000602082019050818103600083015261076f81610733565b9050919050565b61077f81610401565b82525050565b600060608201905061079a6000830186610776565b6107a760208301856104f5565b6107b460408301846104f5565b949350505050565b60006020820190506107d160008301846104f5565b92915050565b600080fd5b600080fd5b7f4e487b7100000000000000000000000000000000000000000000000000000000600052604160045260246000fd5b6108198261061b565b810181811067ffffffffffffffff82111715610838576108376107e1565b5b80604052505050565b600061084b6103ed565b90506108578282610810565b919050565b600067ffffffffffffffff821115610877576108766107e1565b5b6108808261061b565b9050602081019050919050565b60006108a061089b8461085c565b610841565b9050828152602081018484840111156108bc576108bb6107dc565b5b6108c78482856105f1565b509392505050565b600082601f8301126108e4576108e36107d7565b5b81516108f484826020860161088d565b91505092915050565b61090681610665565b811461091157600080fd5b50565b600081519050610923816108fd565b92915050565b60008060008060808587031215610943576109426103f7565b5b600085015167ffffffffffffffff811115610961576109606103fc565b5b61096d878288016108cf565b945050602085015167ffffffffffffffff81111561098e5761098d6103fc565b5b61099a878288016108cf565b935050604085015167ffffffffffffffff8111156109bb576109ba6103fc565b5b6109c7878288016108cf565b92505060606109d887828801610914565b9150509295919450925056fea2646970667358221220edff5cdb8cee7214d1dc7599bbd9c48a319b68fcba2b7b26024722e453102ba064736f6c63430008140033",
  "linkReferences": {},
  "deployedLinkReferences": {}
}