{
  "_format": "hh-sol-artifact-1",
  "contractName": "DocumentVerifier",
  "sourceName": "contracts/DocumentVerifier.sol",
  "abi": [
    {
      "anonymous": false,
      "inputs": [
        {
          "indexed": false,
          "internalType": "bytes32",
          "name": "hash",
          "type": "bytes32"
        },
        {
          "indexed": false,
          "internalType": "address",
          "name": "issuer",
          "type": "address"
        },
        {
          "indexed": false,
          "internalType": "uint256",
          "name": "timestamp",
          "type": "uint256"
        }
      ],
      "name": "DocumentUploaded",
      "type": "event"
    },
    {
      "inputs": [
        {
          "internalType": "bytes32",
          "name": "",
          "type": "bytes32"
        }
      ],
      "name": "documents",
      "outputs": [
        {
          "internalType": "address",
          "name": "issuer",
          "type": "address"
        },
        {
          "internalType": "uint256",
          "name": "timestamp",
          "type": "uint256"
        }
      ],
      "stateMutability": "view",
      "type": "function"
    },
    {
      "inputs": [
        {
          "internalType": "bytes32",
          "name": "hash",
          "type": "bytes32"
        }
      ],
      "name": "storeDocument",
      "outputs": [],
      "stateMutability": "nonpayable",
      "type": "function"
    },
    {
      "inputs": [
        {
          "internalType": "bytes32",
          "name": "hash",
          "type": "bytes32"
        }
      ],
      "name": "verifyDocument",
      "outputs": [
        {
          "internalType": "bool",
          "name": "exists",
          "type": "bool"
        },
        {
          "internalType": "address",
          "name": "issuer",
          "type": "address"
        },
        {
          "internalType": "uint256",
          "name": "timestamp",
          "type": "uint256"
        }
      ],
      "stateMutability": "view",
      "type": "function"
    }
  ],
  "bytecode": "0x608060405234801561001057600080fd5b5061059b806100206000396000f3fe608060405234801561001057600080fd5b50600436106100415760003560e01c80632b2805db146100465780639ed946f414610077578063fe35089f14610093575b600080fd5b610060600480360381019061005b91906103a0565b6100c5565b60405161006e929190610427565b60405180910390f35b610091600480360381019061008c91906103a0565b610109565b005b6100ad60048036038101906100a891906103a0565b61027c565b6040516100bc9392919061046b565b60405180910390f35b60006020528060005260406000206000915090508060000160009054906101000a900473ffffffffffffffffffffffffffffffffffffffff16908060010154905082565b600073ffffffffffffffffffffffffffffffffffffffff1660008083815260200190815260200160002060000160009054906101000a900473ffffffffffffffffffffffffffffffffffffffff1673ffffffffffffffffffffffffffffffffffffffff16146101ad576040517f08c379a00000000000000000000000000000000000000000000000000000000081526004016101a4906104ff565b60405180910390fd5b60405180604001604052803373ffffffffffffffffffffffffffffffffffffffff1681526020014281525060008083815260200190815260200160002060008201518160000160006101000a81548173ffffffffffffffffffffffffffffffffffffffff021916908373ffffffffffffffffffffffffffffffffffffffff160217905550602082015181600101559050507f15e8468d9370e61edb416c5e36dcaeeb6c49e24fd3f402f6c2c6f48102e45b738133426040516102719392919061052e565b60405180910390a150565b6000806000806000808681526020019081526020016000206040518060400160405290816000820160009054906101000a900473ffffffffffffffffffffffffffffffffffffffff1673ffffffffffffffffffffffffffffffffffffffff1673ffffffffffffffffffffffffffffffffffffffff1681526020016001820154815250509050600073ffffffffffffffffffffffffffffffffffffffff16816000015173ffffffffffffffffffffffffffffffffffffffff160361034a5760008060009350935093505061035e565b600181600001518260200151935093509350505b9193909250565b600080fd5b6000819050919050565b61037d8161036a565b811461038857600080fd5b50565b60008135905061039a81610374565b92915050565b6000602082840312156103b6576103b5610365565b5b60006103c48482850161038b565b91505092915050565b600073ffffffffffffffffffffffffffffffffffffffff82169050919050565b60006103f8826103cd565b9050919050565b610408816103ed565b82525050565b6000819050919050565b6104218161040e565b82525050565b600060408201905061043c60008301856103ff565b6104496020830184610418565b9392505050565b60008115159050919050565b61046581610450565b82525050565b6000606082019050610480600083018661045c565b61048d60208301856103ff565b61049a6040830184610418565b949350505050565b600082825260208201905092915050565b7f416c72656164792073746f726564210000000000000000000000000000000000600082015250565b60006104e9600f836104a2565b91506104f4826104b3565b602082019050919050565b60006020820190508181036000830152610518816104dc565b9050919050565b6105288161036a565b82525050565b6000606082019050610543600083018661051f565b61055060208301856103ff565b61055d6040830184610418565b94935050505056fea264697066735822122061b7b3657634705d6041896ee8dd7df3353baa659cecdbb12e5a20f2d9d750fa64736f6c63430008140033",
  "linkReferences": {},
  "deployedLinkReferences": {}
}