{
  "_format": "hh-sol-artifact-1",
  "contractName": "IssuerRegistry",
  "sourceName": "contracts/IssuerRegistry.sol",
  "abi": [
    {
      "anonymous": false,
      "inputs": [
        {
          "indexed": false,
          "internalType": "uint256",
          "name": "id",
          "type": "uint256"
        },
        {
          "indexed": true,
          "internalType": "address",
          "name": "owner",
          "type": "address"
        },
        {
          "indexed": false,
          "internalType": "string",
          "name": "name",
          "type": "string"
        },
        {
          "indexed": false,
          "internalType": "string",
          "name": "organization",
          "type": "string"
        },
        {
          "indexed": false,
          "internalType": "string",
          "name": "email",
          "type": "string"
        }
      ],
      "name": "IssuerRegistered",
      "type": "event"
    },
    {
      "inputs": [],
      "name": "getAllIssuers",
      "outputs": [
        {
          "components": [
            {
              "internalType": "uint256",
              "name": "id",
              "type": "uint256"
            },
            {
              "internalType": "string",
              "name": "name",
              "type": "string"
            },
            {
              "internalType": "string",
              "name": "organization",
              "type": "string"
            },
            {
              "internalType": "string",
              "name": "email",
              "type": "string"
            },
            {
              "internalType": "address",
              "name": "owner",
              "type": "address"
            }
          ],
          "internalType": "struct IssuerRegistry.Issuer[]",
          "name": "",
          "type": "tuple[]"
        }
      ],
      "stateMutability": "view",
      "type": "function"
    },
    {
      "inputs": [
        {
          "internalType": "uint256",
          "name": "id",
          "type": "uint256"
        }
      ],
      "name": "getIssuer",
      "outputs": [
        {
          "internalType": "string",
          "name": "",
          "type": "string"
        },
        {
          "internalType": "string",
          "name": "",
          "type": "string"
        },
        {
          "internalType": "string",
          "name": "",
          "type": "string"
        },
        {
          "internalType": "address",
          "name": "",
          "type": "address"
        }
      ],
      "stateMutability": "view",
      "type": "function"
    },
    {
      "inputs": [
        {
          "internalType": "address",
          "name": "owner",
          "type": "address"
        }
      ],
      "name": "getMyIssuers",
      "outputs": [
        {
          "internalType": "uint256[]",
          "name": "",
          "type": "uint256[]"
        }
      ],
      "stateMutability": "view",
      "type": "function"
    },
    {
      "inputs": [],
      "name": "issuerCount",
      "outputs": [
        {
          "internalType": "uint256",
          "name": "",
          "type": "uint256"
        }
      ],
      "stateMutability": "view",
      "type": "function"
    },
    {
      "inputs": [
        {
          "internalType": "uint256",
          "name": "",
          "type": "uint256"
        }
      ],
      "name": "issuers",
      "outputs": [
        {
          "internalType": "uint256",
          "name": "id",
          "type": "uint256"
        },
        {
          "internalType": "string",
          "name": "name",
          "type": "string"
        },
        {
          "internalType": "string",
          "name": "organization",
          "type": "string"
        },
        {
          "internalType": "string",
          "name": "email",
          "type": "string"
        },
        {
          "internalType": "address",
          "name": "owner",
          "type": "address"
        }
      ],
      "stateMutability": "view",
      "type": "function"
    },
    {
      "inputs": [
        {
          "internalType": "address",
          "name": "",
          "type": "address"
        },
        {
          "internalType": "uint256",
          "name": "",
          "type": "uint256"
        }
      ],
      "name": "ownerToIssuers",
      "outputs": [
        {
          "internalType": "uint256",
          "name": "",
          "type": "uint256"
        }
      ],
      "stateMutability": "view",
      "type": "function"
    },
    {
      "inputs": [
        {
          "internalType": "string",
          "name": "name",
          "type": "string"
        },
        {
          "internalType": "string",
          "name": "organization",
          "type": "string"
        },
        {
          "internalType": "string",
          "name": "email",
          "type": "string"
        }
      ],
      "name": "registerIssuer",
      "outputs": [],
      "stateMutability": "nonpayable",
      "type": "function"
    }
  ],
  "bytecode": "0x608060405234801561001057600080fd5b506117ed806100206000396000f3fe608060405234801561001057600080fd5b506004361061007d5760003560e01c806390a87bdd1161005b57806390a87bdd146100f057806392089c4614610120578063b4d7b98b14610153578063eb793b4f146101715761007d565b80634c32c35c1461008257806361ec30c4146100a05780638096373e146100d4575b600080fd5b61008a6101a1565b6040516100979190610e1f565b60405180910390f35b6100ba60048036038101906100b59190610e81565b610485565b6040516100cb959493929190610f16565b60405180910390f35b6100ee60048036038101906100e991906110b3565b610673565b005b61010a60048036038101906101059190611186565b61087b565b6040516101179190611262565b60405180910390f35b61013a60048036038101906101359190610e81565b610912565b60405161014a9493929190611284565b60405180910390f35b61015b610b73565b60405161016891906112de565b60405180910390f35b61018b600480360381019061018691906112f9565b610b79565b60405161019891906112de565b60405180910390f35b6060600060025467ffffffffffffffff8111156101c1576101c0610f88565b5b6040519080825280602002602001820160405280156101fa57816020015b6101e7610baa565b8152602001906001900390816101df5790505b5090506000600190505b600254811161047d576000808281526020019081526020016000206040518060a00160405290816000820154815260200160018201805461024490611368565b80601f016020809104026020016040519081016040528092919081815260200182805461027090611368565b80156102bd5780601f10610292576101008083540402835291602001916102bd565b820191906000526020600020905b8154815290600101906020018083116102a057829003601f168201915b505050505081526020016002820180546102d690611368565b80601f016020809104026020016040519081016040528092919081815260200182805461030290611368565b801561034f5780601f106103245761010080835404028352916020019161034f565b820191906000526020600020905b81548152906001019060200180831161033257829003601f168201915b5050505050815260200160038201805461036890611368565b80601f016020809104026020016040519081016040528092919081815260200182805461039490611368565b80156103e15780601f106103b6576101008083540402835291602001916103e1565b820191906000526020600020905b8154815290600101906020018083116103c457829003601f168201915b505050505081526020016004820160009054906101000a900473ffffffffffffffffffffffffffffffffffffffff1673ffffffffffffffffffffffffffffffffffffffff1673ffffffffffffffffffffffffffffffffffffffff16815250508260018361044e91906113c8565b8151811061045f5761045e6113fc565b5b602002602001018190525080806104759061142b565b915050610204565b508091505090565b60006020528060005260406000206000915090508060000154908060010180546104ae90611368565b80601f01602080910402602001604051908101604052809291908181526020018280546104da90611368565b80156105275780601f106104fc57610100808354040283529160200191610527565b820191906000526020600020905b81548152906001019060200180831161050a57829003601f168201915b50505050509080600201805461053c90611368565b80601f016020809104026020016040519081016040528092919081815260200182805461056890611368565b80156105b55780601f1061058a576101008083540402835291602001916105b5565b820191906000526020600020905b81548152906001019060200180831161059857829003601f168201915b5050505050908060030180546105ca90611368565b80601f01602080910402602001604051908101604052809291908181526020018280546105f690611368565b80156106435780601f1061061857610100808354040283529160200191610643565b820191906000526020600020905b81548152906001019060200180831161062657829003601f168201915b5050505050908060040160009054906101000a900473ffffffffffffffffffffffffffffffffffffffff16905085565b60008351116106b7576040517f08c379a00000000000000000000000000000000000000000000000000000000081526004016106ae906114bf565b60405180910390fd5b600260008154809291906106ca9061142b565b91905055506040518060a0016040528060025481526020018481526020018381526020018281526020013373ffffffffffffffffffffffffffffffffffffffff168152506000806002548152602001908152602001600020600082015181600001556020820151816001019081610741919061168b565b506040820151816002019081610757919061168b565b50606082015181600301908161076d919061168b565b5060808201518160040160006101000a81548173ffffffffffffffffffffffffffffffffffffffff021916908373ffffffffffffffffffffffffffffffffffffffff160217905550905050600160003373ffffffffffffffffffffffffffffffffffffffff1673ffffffffffffffffffffffffffffffffffffffff16815260200190815260200160002060025490806001815401808255809150506001900390600052602060002001600090919091909150553373ffffffffffffffffffffffffffffffffffffffff167fe2370d29708055e91b9ede44d77c9f563639163938cd86cb4c8968948799f5a460025485858560405161086e949392919061175d565b60405180910390a2505050565b6060600160008373ffffffffffffffffffffffffffffffffffffffff1673ffffffffffffffffffffffffffffffffffffffff16815260200190815260200160002080548060200260200160405190810160405280929190818152602001828054801561090657602002820191906000526020600020905b8154815260200190600101908083116108f2575b50505050509050919050565b60608060606000806000808781526020019081526020016000206040518060a00160405290816000820154815260200160018201805461095190611368565b80601f016020809104026020016040519081016040528092919081815260200182805461097d90611368565b80156109ca5780601f1061099f576101008083540402835291602001916109ca565b820191906000526020600020905b8154815290600101906020018083116109ad57829003601f168201915b505050505081526020016002820180546109e390611368565b80601f0160208091040260200160405190810160405280929190818152602001828054610a0f90611368565b8015610a5c5780601f10610a3157610100808354040283529160200191610a5c565b820191906000526020600020905b815481529060010190602001808311610a3f57829003601f168201915b50505050508152602001600382018054610a7590611368565b80601f0160208091040260200160405190810160405280929190818152602001828054610aa190611368565b8015610aee5780601f10610ac357610100808354040283529160200191610aee565b820191906000526020600020905b815481529060010190602001808311610ad157829003601f168201915b505050505081526020016004820160009054906101000a900473ffffffffffffffffffffffffffffffffffffffff1673ffffffffffffffffffffffffffffffffffffffff1673ffffffffffffffffffffffffffffffffffffffff1681525050905080602001518160400151826060015183608001519450945094509450509193509193565b60025481565b60016020528160005260406000208181548110610b9557600080fd5b90600052602060002001600091509150505481565b6040518060a0016040528060008152602001606081526020016060815260200160608152602001600073ffffffffffffffffffffffffffffffffffffffff1681525090565b600081519050919050565b600082825260208201905092915050565b6000819050602082019050919050565b6000819050919050565b610c2e81610c1b565b82525050565b600081519050919050565b600082825260208201905092915050565b60005b83811015610c6e578082015181840152602081019050610c53565b60008484015250505050565b6000601f19601f8301169050919050565b6000610c9682610c34565b610ca08185610c3f565b9350610cb0818560208601610c50565b610cb981610c7a565b840191505092915050565b600073ffffffffffffffffffffffffffffffffffffffff82169050919050565b6000610cef82610cc4565b9050919050565b610cff81610ce4565b82525050565b600060a083016000830151610d1d6000860182610c25565b5060208301518482036020860152610d358282610c8b565b91505060408301518482036040860152610d4f8282610c8b565b91505060608301518482036060860152610d698282610c8b565b9150506080830151610d7e6080860182610cf6565b508091505092915050565b6000610d958383610d05565b905092915050565b6000602082019050919050565b6000610db582610bef565b610dbf8185610bfa565b935083602082028501610dd185610c0b565b8060005b85811015610e0d5784840389528151610dee8582610d89565b9450610df983610d9d565b925060208a01995050600181019050610dd5565b50829750879550505050505092915050565b60006020820190508181036000830152610e398184610daa565b905092915050565b6000604051905090565b600080fd5b600080fd5b610e5e81610c1b565b8114610e6957600080fd5b50565b600081359050610e7b81610e55565b92915050565b600060208284031215610e9757610e96610e4b565b5b6000610ea584828501610e6c565b91505092915050565b610eb781610c1b565b82525050565b600082825260208201905092915050565b6000610ed982610c34565b610ee38185610ebd565b9350610ef3818560208601610c50565b610efc81610c7a565b840191505092915050565b610f1081610ce4565b82525050565b600060a082019050610f2b6000830188610eae565b8181036020830152610f3d8187610ece565b90508181036040830152610f518186610ece565b90508181036060830152610f658185610ece565b9050610f746080830184610f07565b9695505050505050565b600080fd5b600080fd5b7f4e487b7100000000000000000000000000000000000000000000000000000000600052604160045260246000fd5b610fc082610c7a565b810181811067ffffffffffffffff82111715610fdf57610fde610f88565b5b80604052505050565b6000610ff2610e41565b9050610ffe8282610fb7565b919050565b600067ffffffffffffffff82111561101e5761101d610f88565b5b61102782610c7a565b9050602081019050919050565b82818337600083830152505050565b600061105661105184611003565b610fe8565b90508281526020810184848401111561107257611071610f83565b5b61107d848285611034565b509392505050565b600082601f83011261109a57611099610f7e565b5b81356110aa848260208601611043565b91505092915050565b6000806000606084860312156110cc576110cb610e4b565b5b600084013567ffffffffffffffff8111156110ea576110e9610e50565b5b6110f686828701611085565b935050602084013567ffffffffffffffff81111561111757611116610e50565b5b61112386828701611085565b925050604084013567ffffffffffffffff81111561114457611143610e50565b5b61115086828701611085565b9150509250925092565b61116381610ce4565b811461116e57600080fd5b50565b6000813590506111808161115a565b92915050565b60006020828403121561119c5761119b610e4b565b5b60006111aa84828501611171565b91505092915050565b600081519050919050565b600082825260208201905092915050565b6000819050602082019050919050565b60006111eb8383610c25565b60208301905092915050565b6000602082019050919050565b600061120f826111b3565b61121981856111be565b9350611224836111cf565b8060005b8381101561125557815161123c88826111df565b9750611247836111f7565b925050600181019050611228565b5085935050505092915050565b6000602082019050818103600083015261127c8184611204565b905092915050565b6000608082019050818103600083015261129e8187610ece565b905081810360208301526112b28186610ece565b905081810360408301526112c68185610ece565b90506112d56060830184610f07565b95945050505050565b60006020820190506112f36000830184610eae565b92915050565b600080604083850312156113105761130f610e4b565b5b600061131e85828601611171565b925050602061132f85828601610e6c565b9150509250929050565b7f4e487b7100000000000000000000000000000000000000000000000000000000600052602260045260246000fd5b6000600282049050600182168061138057607f821691505b60208210810361139357611392611339565b5b50919050565b7f4e487b7100000000000000000000000000000000000000000000000000000000600052601160045260246000fd5b60006113d382610c1b565b91506113de83610c1b565b92508282039050818111156113f6576113f5611399565b5b92915050565b7f4e487b7100000000000000000000000000000000000000000000000000000000600052603260045260246000fd5b600061143682610c1b565b91507fffffffffffffffffffffffffffffffffffffffffffffffffffffffffffffffff820361146857611467611399565b5b600182019050919050565b7f456d707479206e616d6500000000000000000000000000000000000000000000600082015250565b60006114a9600a83610ebd565b91506114b482611473565b602082019050919050565b600060208201905081810360008301526114d88161149c565b9050919050565b60008190508160005260206000209050919050565b60006020601f8301049050919050565b600082821b905092915050565b6000600883026115417fffffffffffffffffffffffffffffffffffffffffffffffffffffffffffffffff82611504565b61154b8683611504565b95508019841693508086168417925050509392505050565b6000819050919050565b600061158861158361157e84610c1b565b611563565b610c1b565b9050919050565b6000819050919050565b6115a28361156d565b6115b66115ae8261158f565b848454611511565b825550505050565b600090565b6115cb6115be565b6115d6818484611599565b505050565b5b818110156115fa576115ef6000826115c3565b6001810190506115dc565b5050565b601f82111561163f57611610816114df565b611619846114f4565b81016020851015611628578190505b61163c611634856114f4565b8301826115db565b50505b505050565b600082821c905092915050565b600061166260001984600802611644565b1980831691505092915050565b600061167b8383611651565b9150826002028217905092915050565b61169482610c34565b67ffffffffffffffff8111156116ad576116ac610f88565b5b6116b78254611368565b6116c28282856115fe565b600060209050601f8311600181146116f557600084156116e3578287015190505b6116ed858261166f565b865550611755565b601f198416611703866114df565b60005b8281101561172b57848901518255600182019150602085019450602081019050611706565b868310156117485784890151611744601f891682611651565b8355505b6001600288020188555050505b505050505050565b60006080820190506117726000830187610eae565b81810360208301526117848186610ece565b905081810360408301526117988185610ece565b905081810360608301526117ac8184610ece565b90509594505050505056fea26469706673582212207b43c102410c00e0850185e6298d0b5e334db709b56c0c82af18cea81f19ce9964736f6c63430008140033",
  "linkReferences": {},
  "deployedLinkReferences": {}
}