{
  "_format": "hh-sol-artifact-1",
  "contractName": "DocumentVerifier",
  "sourceName": "contracts/DocumentVerifier.sol",
  "abi": [
    {
      "inputs": [
        {
          "internalType": "address",
          "name": "_registry",
          "type": "address"
        }
      ],
      "stateMutability": "nonpayable",
      "type": "constructor"
    },
    {
      "anonymous": false,
      "inputs": [
        {
          "indexed": false,
          "internalType": "bytes32",
          "name": "hash",
          "type": "bytes32"
        },
        {
          "indexed": false,
          "internalType": "address",
          "name": "owner",
          "type": "address"
        }
      ],
      "name": "DocumentDeleted",
      "type": "event"
    },
    {
      "anonymous": false,
      "inputs": [
        {
          "indexed": false,
          "internalType": "bytes32",
          "name": "hash",
          "type": "bytes32"
        },
        {
          "indexed": false,
          "internalType": "uint256",
          "name": "issuerId",
          "type": "uint256"
        },
        {
          "indexed": false,
          "internalType": "uint256",
          "name": "timestamp",
          "type": "uint256"
        },
        {
          "indexed": false,
          "internalType": "address",
          "name": "owner",
          "type": "address"
        }
      ],
      "name": "DocumentStored",
      "type": "event"
    },
    {
      "inputs": [
        {
          "internalType": "bytes32",
          "name": "hash",
          "type": "bytes32"
        }
      ],
      "name": "deleteDocument",
      "outputs": [],
      "stateMutability": "nonpayable",
      "type": "function"
    },
    {
      "inputs": [
        {
          "internalType": "bytes32",
          "name": "",
          "type": "bytes32"
        }
      ],
      "name": "documents",
      "outputs": [
        {
          "internalType": "bool",
          "name": "exists",
          "type": "bool"
        },
        {
          "internalType": "uint256",
          "name": "issuerId",
          "type": "uint256"
        },
        {
          "internalType": "uint256",
          "name": "timestamp",
          "type": "uint256"
        },
        {
          "internalType": "address",
          "name": "owner",
          "type": "address"
        }
      ],
      "stateMutability": "view",
      "type": "function"
    },
    {
      "inputs": [],
      "name": "registry",
      "outputs": [
        {
          "internalType": "contract IssuerRegistry",
          "name": "",
          "type": "address"
        }
      ],
      "stateMutability": "view",
      "type": "function"
    },
    {
      "inputs": [
        {
          "internalType": "bytes32",
          "name": "hash",
          "type": "bytes32"
        },
        {
          "internalType": "uint256",
          "name": "issuerId",
          "type": "uint256"
        }
      ],
      "name": "storeDocument",
      "outputs": [],
      "stateMutability": "nonpayable",
      "type": "function"
    },
    {
      "inputs": [
        {
          "internalType": "bytes32",
          "name": "hash",
          "type": "bytes32"
        }
      ],
      "name": "verifyDocument",
      "outputs": [
        {
          "internalType": "bool",
          "name": "exists",
          "type": "bool"
        },
        {
          "internalType": "uint256",
          "name": "issuerId",
          "type": "uint256"
        },
        {
          "internalType": "string",
          "name": "name",
          "type": "string"
        },
        {
          "internalType": "string",
          "name": "org",
          "type": "string"
        },
        {
          "internalType": "string",
          "name": "email",
          "type": "string"
        },
        {
          "internalType": "address",
          "name": "owner",
          "type": "address"
        },
        {
          "internalType": "uint256",
          "name": "timestamp",
          "type": "uint256"
        }
      ],
      "stateMutability": "view",
      "type": "function"
    }
  ],
  "bytecode": "0x608060405234801561001057600080fd5b50604051610efd380380610efd833981810160405281019061003291906100dc565b80600160006101000a81548173ffffffffffffffffffffffffffffffffffffffff021916908373ffffffffffffffffffffffffffffffffffffffff16021790555050610109565b600080fd5b600073ffffffffffffffffffffffffffffffffffffffff82169050919050565b60006100a98261007e565b9050919050565b6100b98161009e565b81146100c457600080fd5b50565b6000815190506100d6816100b0565b92915050565b6000602082840312156100f2576100f1610079565b5b6000610100848285016100c7565b91505092915050565b610de5806101186000396000f3fe608060405234801561001057600080fd5b50600436106100575760003560e01c806309fdcacd1461005c5780632b2805db146100785780637b103999146100ab578063db736b70146100c9578063fe35089f146100e5575b600080fd5b6100766004803603810190610071919061071b565b61011b565b005b610092600480360381019061008d919061075b565b610289565b6040516100a294939291906107f3565b60405180910390f35b6100b36102e6565b6040516100c09190610897565b60405180910390f35b6100e360048036038101906100de919061075b565b61030c565b005b6100ff60048036038101906100fa919061075b565b6104ad565b6040516101129796959493929190610942565b60405180910390f35b60008083815260200190815260200160002060000160009054906101000a900460ff161561017e576040517f08c379a000000000000000000000000000000000000000000000000000000000815260040161017590610a12565b60405180910390fd5b60405180608001604052806001151581526020018281526020014281526020013373ffffffffffffffffffffffffffffffffffffffff1681525060008084815260200190815260200160002060008201518160000160006101000a81548160ff021916908315150217905550602082015181600101556040820151816002015560608201518160030160006101000a81548173ffffffffffffffffffffffffffffffffffffffff021916908373ffffffffffffffffffffffffffffffffffffffff1602179055509050507f4296e2326b3917de239c3636e290a15bd479c5f6eb978d23fa5ff702b17711508282423360405161027d9493929190610a41565b60405180910390a15050565b60006020528060005260406000206000915090508060000160009054906101000a900460ff16908060010154908060020154908060030160009054906101000a900473ffffffffffffffffffffffffffffffffffffffff16905084565b600160009054906101000a900473ffffffffffffffffffffffffffffffffffffffff1681565b60008082815260200190815260200160002060000160009054906101000a900460ff1661036e576040517f08c379a000000000000000000000000000000000000000000000000000000000815260040161036590610ad2565b60405180910390fd5b3373ffffffffffffffffffffffffffffffffffffffff1660008083815260200190815260200160002060030160009054906101000a900473ffffffffffffffffffffffffffffffffffffffff1673ffffffffffffffffffffffffffffffffffffffff1614610411576040517f08c379a000000000000000000000000000000000000000000000000000000000815260040161040890610b3e565b60405180910390fd5b600080828152602001908152602001600020600080820160006101000a81549060ff0219169055600182016000905560028201600090556003820160006101000a81549073ffffffffffffffffffffffffffffffffffffffff021916905550507f37bd1a30e1162f0a0bfabb34b5d8e3df43ff0a229f9a0c083b3461835cfcb49e81336040516104a2929190610b5e565b60405180910390a150565b600080606080606060008060008060008a81526020019081526020016000206040518060800160405290816000820160009054906101000a900460ff1615151515815260200160018201548152602001600282015481526020016003820160009054906101000a900473ffffffffffffffffffffffffffffffffffffffff1673ffffffffffffffffffffffffffffffffffffffff1673ffffffffffffffffffffffffffffffffffffffff1681525050905080600001516105b757600080600080604051806020016040528060008152509190604051806020016040528060008152509190604051806020016040528060008152509190975097509750975097509750975050610690565b600160009054906101000a900473ffffffffffffffffffffffffffffffffffffffff1673ffffffffffffffffffffffffffffffffffffffff166392089c4682602001516040518263ffffffff1660e01b81526004016106169190610b87565b600060405180830381865afa158015610633573d6000803e3d6000fd5b505050506040513d6000823e3d601f19601f8201168201806040525081019061065c9190610cf4565b8096508197508298508399505050505060018160200151878787856060015186604001519750975097509750975097509750505b919395979092949650565b6000604051905090565b600080fd5b600080fd5b6000819050919050565b6106c2816106af565b81146106cd57600080fd5b50565b6000813590506106df816106b9565b92915050565b6000819050919050565b6106f8816106e5565b811461070357600080fd5b50565b600081359050610715816106ef565b92915050565b60008060408385031215610732576107316106a5565b5b6000610740858286016106d0565b925050602061075185828601610706565b9150509250929050565b600060208284031215610771576107706106a5565b5b600061077f848285016106d0565b91505092915050565b60008115159050919050565b61079d81610788565b82525050565b6107ac816106e5565b82525050565b600073ffffffffffffffffffffffffffffffffffffffff82169050919050565b60006107dd826107b2565b9050919050565b6107ed816107d2565b82525050565b60006080820190506108086000830187610794565b61081560208301866107a3565b61082260408301856107a3565b61082f60608301846107e4565b95945050505050565b6000819050919050565b600061085d610858610853846107b2565b610838565b6107b2565b9050919050565b600061086f82610842565b9050919050565b600061088182610864565b9050919050565b61089181610876565b82525050565b60006020820190506108ac6000830184610888565b92915050565b600081519050919050565b600082825260208201905092915050565b60005b838110156108ec5780820151818401526020810190506108d1565b60008484015250505050565b6000601f19601f8301169050919050565b6000610914826108b2565b61091e81856108bd565b935061092e8185602086016108ce565b610937816108f8565b840191505092915050565b600060e082019050610957600083018a610794565b61096460208301896107a3565b81810360408301526109768188610909565b9050818103606083015261098a8187610909565b9050818103608083015261099e8186610909565b90506109ad60a08301856107e4565b6109ba60c08301846107a3565b98975050505050505050565b7f416c72656164792073746f726564000000000000000000000000000000000000600082015250565b60006109fc600e836108bd565b9150610a07826109c6565b602082019050919050565b60006020820190508181036000830152610a2b816109ef565b9050919050565b610a3b816106af565b82525050565b6000608082019050610a566000830187610a32565b610a6360208301866107a3565b610a7060408301856107a3565b610a7d60608301846107e4565b95945050505050565b7f446f63756d656e7420646f6573206e6f74206578697374000000000000000000600082015250565b6000610abc6017836108bd565b9150610ac782610a86565b602082019050919050565b60006020820190508181036000830152610aeb81610aaf565b9050919050565b7f4e6f7420646f63756d656e74206f776e65720000000000000000000000000000600082015250565b6000610b286012836108bd565b9150610b3382610af2565b602082019050919050565b60006020820190508181036000830152610b5781610b1b565b9050919050565b6000604082019050610b736000830185610a32565b610b8060208301846107e4565b9392505050565b6000602082019050610b9c60008301846107a3565b92915050565b600080fd5b600080fd5b7f4e487b7100000000000000000000000000000000000000000000000000000000600052604160045260246000fd5b610be4826108f8565b810181811067ffffffffffffffff82111715610c0357610c02610bac565b5b80604052505050565b6000610c1661069b565b9050610c228282610bdb565b919050565b600067ffffffffffffffff821115610c4257610c41610bac565b5b610c4b826108f8565b9050602081019050919050565b6000610c6b610c6684610c27565b610c0c565b905082815260208101848484011115610c8757610c86610ba7565b5b610c928482856108ce565b509392505050565b600082601f830112610caf57610cae610ba2565b5b8151610cbf848260208601610c58565b91505092915050565b610cd1816107d2565b8114610cdc57600080fd5b50565b600081519050610cee81610cc8565b92915050565b60008060008060808587031215610d0e57610d0d6106a5565b5b600085015167ffffffffffffffff811115610d2c57610d2b6106aa565b5b610d3887828801610c9a565b945050602085015167ffffffffffffffff811115610d5957610d586106aa565b5b610d6587828801610c9a565b935050604085015167ffffffffffffffff811115610d8657610d856106aa565b5b610d9287828801610c9a565b9250506060610da387828801610cdf565b9150509295919450925056fea264697066735822122029bea254c2ce38502b7b97ff3e27a4202a4baea71500ff126a13fe37bc0c17c664736f6c63430008140033",
  "linkReferences": {},
  "deployedLinkReferences": {}
}